:040000001BEF00F002
:100008005382D9CF4FF0DACF50F07AB27BA203D027
:10001800AAEC03F006D0F2B6F2A003D0BFEC03F0CE
:10002800F29050C0DAFF4FC0D9FF5392110092EFFF
:1000380003F08A8A00F000F08A9A00F08A8A00F0B9
:1000480000F08A9A00F08A8A00F000F08A9A00F09C
:100058008A8A00F000F08A9A00F08A8A00F000F09C
:100068008A9A00F08A8A00F000F08A9A00F08A8A58
:1000780000F000F08A9A00F08A8A00F000F08A9A6C
:1000880000F08A8A00F000F08A9A00F08A8A00F06C
:1000980000F08A9A00F08A8A00F000F08A9A00F04C
:1000A8008A8A00F000F08A9A00F08A8A00F000F04C
:1000B8008A9A00F08A8A00F000F08A9A00F08A8A08
:1000C80000F000F08A9A00F08A8A00F000F08A9A1C
:1000D80000F08A8A00F08A9A00F08A8A00F08A9AE8
:1000E80000F08A8A00F08A9A00F08A8A00F08A9AD8
:1000F80000F08A8A00F08A9A00F08A8A00F08A9AC8
:1001080000F08A8A00F08A9A00F08A8A00F08A9AB7
:1001180000F012008A8A00F000F08A9A00F08A8AB9
:1001280000F000F08A9A00F08A8A00F000F08A9ABB
:1001380000F08A8A00F000F08A9A00F08A8A00F0BB
:1001480000F08A9A00F08A8A00F000F08A9A00F09B
:100158008A8A00F000F08A9A00F08A8A00F000F09B
:100168008A9A00F08A8A00F08A9A00F08A8A00F057
:100178008A9A00F08A8A00F08A9A00F08A8A00F047
:100188008A9A00F08A8A00F08A9A00F08A8A00F037
:100198008A9A00F08A8A00F08A9A00F08A8A00F027
:1001A8008A9A00F08A8A00F08A9A00F08A8A00F017
:1001B8008A9A00F08A8A00F08A9A00F08A8A00F007
:1001C8008A9A00F08A8A00F08A9A00F08A8A00F0F7
:1001D8008A9A00F08A8A00F08A9A00F08A8A00F0E7
:1001E8008A9A00F012008A8A00F08A9A00F08A8AB5
:1001F80000F08A9A00F08A8A00F08A9A00F08A8AC7
:1002080000F08A9A00F08A8A00F08A9A00F08A8AB6
:1002180000F08A9A00F08A8A00F08A9A00F08A8AA6
:1002280000F08A9A00F08A8A00F000F08A9A00F0BA
:100238008A8A00F000F08A9A00F08A8A00F000F0BA
:100248008A9A00F08A8A00F000F08A9A00F08A8A76
:1002580000F000F08A9A00F08A8A00F000F08A9A8A
:1002680000F08A8A00F000F08A9A00F08A8A00F08A
:1002780000F08A9A00F08A8A00F08A9A00F08A8A46
:1002880000F08A9A00F08A8A00F08A9A00F08A8A36
:1002980000F08A9A00F08A8A00F08A9A00F08A8A26
:1002A80000F08A9A00F08A8A00F08A9A00F08A8A16
:1002B80000F08A9A00F012004A6A4B6A1DEC00F0BE
:1002C8004A4A4B2A4BBEFAD74B5003E10C0E4A5C04
:1002D800F5E34A6A4B6A8EEC00F04A4A4B2A4BBE59
:1002E800FAD74B5003E10C0E4A5CF5E3820E496ED7
:1002F800DE0EE82EFED7492EFCD7820E496EDE0EA2
:10030800E82EFED7492EFCD7820E496EDE0EE82E67
:10031800FED7492EFCD7820E496EDE0EE82EFED798
:10032800492EFCD7820E496EDE0EE82EFED7492EE6
:10033800FCD7820E496EDE0EE82EFED7492EFCD77A
:10034800820E496EDE0EE82EFED7492EFCD7820EAD
:10035800496EDE0EE82EFED7492EFCD7820E496E76
:10036800DE0EE82EFED7492EFCD7820E496EDE0E31
:10037800E82EFED7492EFCD7820E496EDE0EE82EF7
:10038800FED7492EFCD712008A8A00F08A9A00F01C
:100398008A8A00F08A9A00F08A8A00F08A9A00F025
:1003A8008A8A00F08A9A00F08A8A00F08A9A00F015
:1003B8008A8A00F08A9A00F08A8A00F08A9A00F005
:1003C8008A8A00F08A9A00F08A8A00F08A9A00F0F5
:1003D8008A8A00F08A9A00F08A8A00F08A9A00F0E5
:1003E8008A8A00F08A9A00F08A8A00F08A9A00F0D5
:1003F8008A8A00F08A9A00F08A8A00F08A9A00F0C5
:100408008A8A00F08A9A00F08A8A00F08A9A00F0B4
:100418008A8A00F08A9A00F08A8A00F08A9A00F0A4
:100428008A8A00F08A9A00F08A8A00F08A9A00F094
:100438008A8A00F08A9A00F08A8A00F08A9A00F084
:100448008A8A00F08A9A00F012004A6A4B6A8EEC97
:1004580000F04A4A4B2A4BBEFAD74B5003E1180E1C
:100468004A5CF5E3820E496EDE0EE82EFED7492E71
:10047800FCD7820E496EDE0EE82EFED7492EFCD739
:10048800820E496EDE0EE82EFED7492EFCD7820E6C
:10049800496EDE0EE82EFED7492EFCD7820E496E35
:1004A800DE0EE82EFED7492EFCD7820E496EDE0EF0
:1004B800E82EFED7492EFCD7820E496EDE0EE82EB6
:1004C800FED7492EFCD7820E496EDE0EE82EFED7E7
:1004D800492EFCD7820E496EDE0EE82EFED7492E35
:1004E800FCD7820E496EDE0EE82EFED7492EFCD7C9
:1004F800820E496EDE0EE82EFED7492EFCD712007A
:100508004A6A4B6AF7EC00F04A4A4B2A4BBEFAD7C4
:100518004B5003E1180E4A5CF5E3820E496EDE0E7D
:10052800E82EFED7492EFCD7820E496EDE0EE82E45
:10053800FED7492EFCD7820E496EDE0EE82EFED776
:10054800492EFCD7820E496EDE0EE82EFED7492EC4
:10055800FCD7820E496EDE0EE82EFED7492EFCD758
:10056800820E496EDE0EE82EFED7492EFCD7820E8B
:10057800496EDE0EE82EFED7492EFCD7820E496E54
:10058800DE0EE82EFED7492EFCD7820E496EDE0E0F
:10059800E82EFED7492EFCD7820E496EDE0EE82ED5
:1005A800FED7492EFCD712004D6A4C6A4D5010E117
:1005B8004D50190FD96EDA6ADF6A4D50310FD96E76
:1005C800DA6ADF6A4D50010FD96EDA6ADF6A12D033
:1005D8004D50190FD96EDA6A040EDF264D50310FCF
:1005E800D96EDA6A040EDF264D50010FD96EDA6A29
:1005F800040EDF264C2A170E4C64D8D75AEC03F0A9
:10060800000E4A6E030E496E2CEC03F04D2A3F0E85
:100618004D64CBD73F0C4E6E10D084EC02F084EFC3
:1006280003F029EC02F084EF03F060EC01F084EFB2
:1006380003F0D8EC02F084EF03F04E50010AEDE02D
:10064800030AEFE0010AF1E0060AF3E084EF03F0A1
:100658004A5003E1020E495C0BE3820E4B6EDE0E3C
:10066800E82EFED74B2EFCD74906D8A04A06F0D76D
:10067800820E4B6EDE0EE82EFED74B2EFCD71200F4
:10068800010E8A6E896A8B6A2F0E0F01386F0E0E63
:10069800396FEC0E3A6FDF0E936EEF0E946ECE0E3E
:1006A800616E9268F18E6288F2861200496A070EBE
:1006B8004A6E4A064AAEFDD7070E4A6E4A064AAE49
:1006C800FDD7070E4A6E4A064AAEFDD7492A170ECD
:1006D8004964EDD78A9A170CE90E495CA00E4A586E
:1006E80002E37B9212008BB803D04B6A4B2A01D0ED
:1006F8004B6A4B3A8B504B18EF0B4B188B6E120012
:10070800496A4A6AC8EC01F0494A4A2A4ABEFAD7F5
:100718004A5003E1180E495CF5E3120000EE01F0BF
:10072800480EEE6AE806FDE153905392000EF86E0B
:100738000001D8EF03F0CD6ACC6ACF68CE68CECF7F
:1007480051F0CFCF52F09E90E1EF03F07B9258CF5B
:100758004CF059CF4DF04CC049F04DC04AF070EF05
:1007680003F0DDEC03F044EC03F0D2EC03F09FEC73
:1007780003F0C9EF03F062B8F2A0120081B803D009
:10078800030E0FEC03F0F2901200040E576F586B33
:10079800596BFC0E48177B927A82FC0C700ED36E54
:1007A800040ED26E9B6A1200B5EC03F0F28EF28C46
:0E07B800FFD7D09E7C92F1901200CD801200EF
:020000040020DA
:08000000FFFFFFFFFFFFFFFF00
:020000040030CA
:0E000000FF281F3CFFBF81FF0FC00FE00F4025
:00000001FF
