:0400000046EF00F0D7
:100008005782FACF4BF0FBCF4CF0D9CF4DF0DACF77
:100018004EF0A3BCA4AC03D031EC10F029D0A3BEA1
:10002800A4AE03D00EEC08F023D0A3B8A4A803D044
:1000380046EC0FF01DD0A3BAA4AA03D07BEC0FF0B6
:1000480017D07AB27BA203D0F5EC0FF011D09DB88F
:100058009EA803D058EC0FF00BD09DBA9EAA03D0EF
:100068008CEC0FF005D0A0B2A1A202D034EC0FF0B6
:100078004EC0DAFF4DC0D9FF4CC0FBFF4BC0FAFFA2
:08008800579211006AEF0FF01E
:10100000003C0000000000FF3078393844333331B1
:1010100038303630463100434D440000A49E6CAE5B
:10102000C5D06C9E2E6A20EE02F02250D9262350A5
:10103000DA22DF50D96EDA6A010EDF6E226A236A85
:1010400012001BB212001AC022F0236A1A50D96E85
:10105000DA6ADF502F6E1A50D96EDA6AD92ADF5059
:10106000456E45C024F0256A050E1A263D0E050F73
:101070001A6202D03D0E1A6E1B9019501A1801E127
:101080001B826B80020E2E6E020C6BAC04D014D04F
:10109000040EA7EF0EF0D8904330466E4230456EF6
:1010A00045506F6E42A003D00B0E2E6E0B0C030E3C
:1010B0002E6E030C6BAC02D01D2AEAD76B82435014
:1010C000060B456E466AF00E4510426E4650436E62
:1010D0004280010E266ED6D726041BE024C0D9FF1D
:1010E00025C0DAFFDECF42F0DDCF43F020EE03F083
:1010F0002450D9262550DA22DF50456E45C01EF017
:101100001F6A20EE02F02450D9262550DA22DF5043
:10111000276E42C06FFF42A0CAD7050E2E6E050C87
:101120006BAC05D01D2A6B9C050EA7EF0EF02706B1
:10113000272809E1060E2426000E25222F2E01D095
:101140002ED06B829FD71EC0D9FF1FC0DAFFDF50A1
:101150006F6E1E4A1F2A12006BAC06D01D2A040EA9
:10116000A7EC0EF06B9C12006B86080E2E6E080C1E
:10117000080E2E6E6B86080C1EC0D9FF1FC0DAFF4A
:101180006FCFDFFF1E4A1F2A270604E06B9A060E68
:101190002E6E03D06B8ACAEC0FF06B881200000E23
:1011A000A7EF0EF01D2A060EA7EF0EF02E5001E15C
:1011B00048D7010AC6E0030A8FE0010AB1E0070A36
:1011C000EEE0010AC9E0030AD3E0010AE8E00F0AF1
:1011D000D3E0020A01E159D7010A01E16BD7E2D756
:1011E0000001796B0DEC0AF00001792B7951800A2E
:1011F000680FF8E3820E786FDE0EE82EFED7782FA8
:10120000FCD7820E0001786FDE0EE82EFED7782F15
:10121000FCD7820E0001786FDE0EE82EFED7782F05
:10122000FCD7820E0001786FDE0EE82EFED7782FF5
:10123000FCD7820E0001786FDE0EE82EFED7782FE5
:10124000FCD7820E0001786FDE0EE82EFED7782FD5
:10125000FCD7820E0001786FDE0EE82EFED7782FC5
:10126000FCD7820E0001786FDE0EE82EFED7782FB5
:10127000FCD7820E0001786FDE0EE82EFED7782FA5
:10128000FCD7820E0001786FDE0EE82EFED7782F95
:10129000FCD790EC0EF0820E0001786FDE0EE82E87
:1012A000FED7782FFCD7820E0001786FDE0EE82E75
:1012B000FED7782FFCD7820E0001786FDE0EE82E65
:1012C000FED7782FFCD7820E0001786FDE0EE82E55
:1012D000FED7782FFCD7820E0001786FDE0EE82E45
:1012E000FED7782FFCD7820E0001786FDE0EE82E35
:1012F000FED7782FFCD7820E0001786FDE0EE82E25
:10130000FED7782FFCD7820E0001786FDE0EE82E14
:10131000FED7782FFCD7820E0001786FDE0EE82E04
:10132000FED7782FFCD7820E0001786FDE0EE82EF4
:10133000FED7782FFCD712008A8800F08A9800F038
:101340008A8800F08A9800F08A8800F08A9800F075
:101350008A8800F08A9800F08A8800F08A9800F065
:101360008A8800F08A9800F08A8800F08A9800F055
:101370008A8800F08A9800F08A8800F000F08A9845
:1013800000F08A8800F000F08A9800F08A8800F067
:1013900000F08A9800F08A8800F000F08A9800F047
:1013A0008A8800F000F08A9800F08A8800F000F047
:1013B0008A9800F08A8800F000F08A9800F08A8805
:1013C00000F000F08A9800F08A8800F000F08A9817
:1013D00000F08A8800F000F08A9800F08A8800F017
:1013E00000F08A9800F08A8800F000F08A9800F0F7
:1013F0008A8800F000F08A9800F08A8800F000F0F7
:101400008A9800F08A8800F000F08A9800F08A88B4
:1014100000F000F08A9800F012008A8800F000F0D6
:101420008A9800F08A8800F000F08A9800F08A8894
:1014300000F000F08A9800F08A8800F000F08A98A6
:1014400000F08A8800F000F08A9800F08A8800F0A6
:1014500000F08A9800F08A8800F000F08A9800F086
:101460008A8800F000F08A9800F08A8800F000F086
:101470008A9800F08A8800F000F08A9800F08A8844
:1014800000F000F08A9800F08A8800F000F08A9856
:1014900000F08A8800F000F08A9800F08A8800F056
:1014A00000F08A9800F08A8800F000F08A9800F036
:1014B0008A8800F000F08A9800F08A8800F08A9804
:1014C00000F08A8800F08A9800F08A8800F08A98F4
:1014D00000F08A8800F08A9800F08A8800F08A98E4
:1014E00000F08A8800F08A9800F08A8800F08A98D4
:1014F00000F08A8800F08A9800F012008A8800F0D4
:1015000000F08A9800F08A8800F000F08A9800F0D5
:101510008A8800F08A9800F08A8800F08A9800F0A3
:101520008A8800F000F08A9800F08A8800F08A9893
:1015300000F08A8800F08A9800F08A8800F000F0B5
:101540008A9800F08A8800F08A9800F08A8800F073
:1015500000F08A9800F08A8800F000F08A9800F085
:101560008A8800F08A9800F08A8800F08A9800F053
:101570008A8800F000F08A9800F08A8800F000F075
:101580008A9800F08A8800F08A9800F08A8800F033
:1015900000F08A9800F08A8800F000F08A9800F045
:1015A0008A8800F000F08A9800F08A8800F000F045
:1015B0008A9800F08A8800F000F08A9800F08A8803
:1015C00000F000F08A9800F08A8800F000F08A9815
:1015D00000F08A8800F000F08A9800F012008A88F3
:1015E00000F000F08A9800F08A8800F000F08A98F5
:1015F00000F08A8800F000F08A9800F08A8800F0F5
:1016000000F08A9800F08A8800F000F08A9800F0D4
:101610008A8800F000F08A9800F08A8800F000F0D4
:101620008A9800F08A8800F000F08A9800F08A8892
:1016300000F08A9800F08A8800F08A9800F08A8882
:1016400000F08A9800F08A8800F08A9800F08A8872
:1016500000F08A9800F08A8800F08A9800F08A8862
:1016600000F08A9800F08A8800F08A9800F08A8852
:1016700000F08A9800F08A8800F08A9800F08A8842
:1016800000F08A9800F08A8800F08A9800F08A8832
:1016900000F08A9800F08A8800F08A9800F08A8822
:1016A00000F08A9800F08A8800F08A9800F0120012
:1016B0008A8800F08A9800F08A8800F08A9800F002
:1016C0008A8800F08A9800F08A8800F08A9800F0F2
:1016D0008A8800F08A9800F08A8800F08A9800F0E2
:1016E0008A8800F08A9800F08A8800F08A9800F0D2
:1016F0008A8800F000F08A9800F08A8800F000F0F4
:101700008A9800F08A8800F000F08A9800F08A88B1
:1017100000F000F08A9800F08A8800F000F08A98C3
:1017200000F08A8800F000F08A9800F08A8800F0C3
:1017300000F08A9800F08A8800F000F08A9800F0A3
:101740008A8800F08A9800F08A8800F08A9800F071
:101750008A8800F08A9800F08A8800F08A9800F061
:101760008A8800F08A9800F08A8800F08A9800F051
:101770008A8800F08A9800F08A8800F08A9800F041
:1017800012008A8800F08A9800F08A8800F08A980F
:1017900000F08A8800F08A9800F08A8800F08A9821
:1017A00000F08A8800F08A9800F08A8800F08A9811
:1017B00000F08A8800F08A9800F08A8800F08A9801
:1017C00000F08A8800F08A9800F08A8800F000F023
:1017D0008A9800F08A8800F000F08A9800F08A88E1
:1017E00000F000F08A9800F08A8800F000F08A98F3
:1017F00000F08A8800F000F08A9800F08A8800F0F3
:1018000000F08A9800F08A8800F000F08A9800F0D2
:101810008A8800F08A9800F08A8800F08A9800F0A0
:101820008A8800F08A9800F08A8800F08A9800F090
:101830008A8800F08A9800F08A8800F08A9800F080
:101840008A8800F08A9800F08A8800F08A9800F070
:1018500012008A8800F08A9800F08A8800F08A983E
:1018600000F08A8800F08A9800F08A8800F08A9850
:1018700000F08A8800F08A9800F08A8800F08A9840
:1018800000F08A8800F08A9800F08A8800F08A9830
:1018900000F08A8800F08A9800F08A8800F08A9820
:1018A00000F08A8800F08A9800F08A8800F08A9810
:1018B00000F08A8800F08A9800F08A8800F08A9800
:1018C00000F08A8800F08A9800F08A8800F08A98F0
:1018D00000F08A8800F08A9800F08A8800F08A98E0
:1018E00000F08A8800F000F08A9800F08A8800F002
:1018F0008A9800F08A8800F08A9800F08A8800F0C0
:101900008A9800F08A8800F08A9800F08A8800F0AF
:1019100000F08A9800F012008A8800F08A9800F09F
:101920008A8800F08A9800F08A8800F08A9800F08F
:101930008A8800F08A9800F08A8800F08A9800F07F
:101940008A8800F08A9800F08A8800F08A9800F06F
:101950008A8800F08A9800F08A8800F08A9800F05F
:101960008A8800F08A9800F08A8800F08A9800F04F
:101970008A8800F08A9800F08A8800F08A9800F03F
:101980008A8800F08A9800F08A8800F08A9800F02F
:101990008A8800F08A9800F08A8800F08A9800F01F
:1019A0008A8800F08A9800F08A8800F08A9800F00F
:1019B0008A8800F08A9800F08A8800F08A9800F0FF
:1019C0008A8800F08A9800F08A8800F08A9800F0EF
:1019D0008A8800F08A9800F0120000017A6FF29E67
:1019E00028D07B6B60EC0EF000017B2B7B51800AD2
:1019F0006C0F30E2F7D7D3EC0DF02CD0A0EC0DF04B
:101A000029D0ADEC0FF026D06DEC0DF023D07C6B1F
:101A100090EC0EF0F0EC08F000017C2B7C51800A79
:101A20007B0F18E2F5D72EEC0DF014D0BEEC0EF0C3
:101A300011D000017A51DFE0010AD3E0030ADEE0B1
:101A4000010ADFE0070AE0E0010AE1E0030AEBE057
:101A5000010AECE090EC0EF0F28E12000001786BBF
:101A6000796B58EC0BF00001784B792B79BFF9D7E3
:101A7000795103E1060E785DF4E3786B796B0DEC38
:101A80000AF00001784B792B79BFF9D7795103E13E
:101A9000060E785DF4E3786B796BEFEC0AF00001E9
:101AA000784B792B79BFF9D7795103E1060E785D30
:101AB000F4E3786B796B29EC0CF00001784B792B0F
:101AC00079BFF9D7795103E1060E785DF4E3000E92
:101AD000766FC80E756F47EF0EF00001786B2BD054
:101AE000796B79A103D058EC0BF002D00DEC0AF021
:101AF0000001792B7951800A680FF3E3000E766FAD
:101B00000B0E756F47EC0EF00001796B79A103D0D5
:101B10000DEC0AF002D058EC0BF00001792B795152
:101B2000800A680FF3E3000E766F0B0E756F47ECBB
:101B30000EF00001782B7851800A760FD1E3120065
:101B40000001786B2BD0796B79A103D029EC0CF0D4
:101B500002D07EEC0AF00001792B7951800A680FDF
:101B6000F3E3000E766F0B0E756F47EC0EF000017D
:101B7000796B79A103D07EEC0AF002D029EC0CF04D
:101B80000001792B7951800A680FF3E3000E766F1C
:101B90000B0E756F47EC0EF00001782B7851800A20
:101BA000760FD1E312000001786B2BD0796B79A10D
:101BB00003D058EC0BF002D0C1EC0BF00001792BF4
:101BC0007951800A680FF3E3000E766F0B0E756F84
:101BD00047EC0EF00001796B79A103D0C1EC0BF05A
:101BE00002D058EC0BF00001792B7951800A680F74
:101BF000F3E3000E766F0B0E756F47EC0EF00001ED
:101C0000782B7851800A7B0FD1E312002DEC0EF077
:101C1000F28EF28C389192908990000E0001766FCE
:101C2000050E756F47EC0EF0000EEDEC0CF0010E9A
:101C3000EDEC0CF0020EEDEC0CF0030EEDEC0CF004
:101C4000040EEDEC0CF0050EEDEC0CF0060EEDECD8
:101C50000CF0070EEDEC0CF0E7D7EBEC0FF0E7EC37
:101C60000EF018EC10F023EC10F09DEC0FF0FFECF0
:101C70000FF0D3EC0EF008EC10F0E1EC0FF010ECEC
:101C800010F0D6EC0FF00FEC0FF022EF0FF07651C2
:101C900003E1020E755D0CE3820E776FDE0EE82E17
:101CA000FED7772FFCD700017507D8A07607EFD7AE
:101CB000820E776FDE0EE82EFED7772FFCD712004C
:101CC0000001786B58EC0BF00001782B170E78654B
:101CD000F9D7000E766F050E756F47EC0EF090EC9D
:101CE0000EF0000E0001766F050E756F47EF0EF0D7
:101CF000455003E1020E445C0BE3820E466EDE0E9D
:101D0000E82EFED7462EFCD74406D8A04506F0D7CD
:101D1000820E466EDE0EE82EFED7462EFCD712004F
:101D20000001766B776B8CEC0CF00001764B772B17
:101D300077BFF9D7775103E1180E765DF4E3340EDF
:101D4000756FF20EE82EFED7752FFCD71200446E89
:101D50006B8420EE02F02250D9262350DA22DF5085
:101D60000BE020EE02F02250D9262350DA22DF5079
:101D7000D96EDA6A44C0DFFF2E6A12000001786B68
:101D8000796B9CEC09F00001784B792B79BFF9D77E
:101D9000795103E1180E785DF4E3000E766FC80EFA
:101DA000756F47EF0EF0B16AB46AB368980EB26E01
:101DB000B2CF53F0B3CF54F0A192A082600E0001D5
:101DC000756F200E766F1EEC10F02AEF10F0010EEA
:101DD0008A6E896A8B6A0E0E0F01386F396B3A6B07
:101DE000CE0E936ED10E946E160E616EEF0E926E45
:101DF000F19EF296EF0C47049D0E485802E37B9249
:101E00001200305002E0306A02D0010E306E000E37
:101E1000456E500E446E78EC0EF07B9212009D9A47
:101E20009D98080EB86E900EAB6E240EAC6EA00E90
:101E3000AF6E010EB06E2A6A080E556E296A286AC6
:101E40009D8A1200A39AA398080E706E900E716E70
:101E5000240E726E220E756E766A2D6A080E566E0C
:101E60002C6A2B6AA38A1200A19254C0B3FF53C0FC
:101E7000B2FF204A212A215004E11E0E205CD8A086
:101E80001200BDEC0FF0206A216A1200080E5660A5
:101E90000DD02D50110FD96EDA6ADF50736E2D2AD6
:101EA000070E2D6401D02D6A562A1200A398120045
:101EB000080E55600DD02A50600FD96EDA6ADF50D7
:101EC000AD6E2A2A070E2A6401D02A6A552A12000A
:101ED0009D98120000EE60F0150EEE6AE806FDE136
:101EE00000EE01F0430EEE6AE806FDE157905792CE
:101EF000000106EF0EF071A202D0719871882C508B
:101F0000090FD96EDA6A74CFDFFF2C2A070E2C6412
:101F100001D02C6A2B2A1200ABA202D0AB98AB885E
:101F20002950010FD96EDA6AAECFDFFF292A070EDA
:101F3000296401D0296A282A12003D0E1A6E196EF2
:101F40001B821B901D6A400E6D6E280E6C6E696AB6
:101F5000090E6E6EA49EA38E090C0001786BEFEC47
:101F60000AF00001782B7851800A680FF8E3010E1F
:101F7000766F680E756F47EF0EF04F505010D8B463
:101F800012000500FA6E4F50FD6E5050FE6EFF6A53
:101F9000FA501200060E2426000E25222F2E03D002
:101FA000040E2E6E040C010E2E6E010CCD6ACC6A4E
:101FB000CF68CE68CECF51F0CFCF52F09E902EEFAB
:101FC00010F03C0E546F1E0E556F566B4851F30BBC
:101FD0000409486F1200D09EA59CA59EA598A59ABD
:101FE0007C929F989F9AA292120058CF49F059CFA5
:101FF0004AF049C047F04AC048F0FBEF0EF0040E2B
:10200000576F586B596BFC0E48177B927A82FC0C09
:102010000F01516B670E526F536B7E9028EF10F0DB
:10202000020EBA6E630EBB6EBC6A9E922CEF10F06D
:10203000720ED36E040ED26E9B6A120075C04FF002
:1020400076C050F01200C76A330EC66EC86A12001E
:1020500051851200B1801200BA841200CD801200A6
:042060001200120058
:020000040020DA
:08000000FFFFFFFFFFFFFFFF00
:020000040030CA
:0E000000FF381F3CFFBF81FF0FC00FE00F4015
:00000001FF
