:040000006EEF00F0AF
:100008004382FACF2BF0FBCF2CF0E9CF2DF0EACFCB
:100018002EF0E1CF2FF0E2CF30F0D9CF31F0DACFA8
:1000280032F0F3CF33F0F4CF34F0F6CF35F0F7CF2A
:1000380036F0F8CF37F0F5CF38F0A3BCA4AC03D036
:10004800E7EC0EF029D0A3BEA4AE03D004EC08F070
:1000580023D0A3B8A4A803D073EC0DF01DD0A3BA85
:10006800A4AA03D0ECEC0DF017D07AB27BA203D08F
:1000780096EC0EF011D09DB89EA803D08CEC0DF034
:100088000BD09DBA9EAA03D002EC0EF005D0A0B208
:10009800A1A202D0BEEC0DF038C0F5FF37C0F8FFC2
:1000A80036C0F7FF35C0F6FF34C0F4FF33C0F3FFA6
:1000B80032C0DAFF31C0D9FF30C0E2FF2FC0E1FF04
:1000C8002EC0EAFF2DC0E9FF2CC0FBFF2BC0FAFFB2
:0800D80043921100FCEF0BF054
:10100000000001434D440000A49E6CAE11D16C9EC3
:10101000000E176E000120EE03F0A851D926A95149
:10102000DA22DECF24F0DDCF25F024C0D9FF25C0A1
:10103000DAFF010EDF6E000E0001A86F000E000146
:10104000A96F1200000191B312008FC0A8F090C0E8
:10105000A9F08FC0D9FF90C0DAFFDF50186E0001F1
:1010600020EE01F08F51D9269051DA22DECF05F023
:10107000DDCF06F0060E00018F27000E9023D10E63
:1010800000018F190BE1000E00019019D8A406D0C1
:10109000CB0E00018F6F000E0001906F0001919147
:1010A00000018D5100018F1908E100018E510001EE
:1010B0009019D8A402D0000191836B80020E176EA4
:1010C00012006B82020E176E12006BAC06D000018C
:1010D000932B040E57EC0CF01200D8902030256EA4
:1010E0001F30246E24506F6E1FA003D00B0E176E9E
:1010F0001200030E176E12006BAC06D00001932B8A
:10110000040E57EC0CF012006B821FC024F020C0BC
:1011100025F025C024F0256A060E2416000E25169B
:10112000F00E24101F6E2550206E1F80010E076EDA
:10113000020E176E12000704D8B41AD005C0D9FFEA
:1011400006C0DAFFDECF1FF0DDCF20F020EE03F087
:101150000550D9260650DA22DECF9AF0DDCF9BF07B
:1011600020EE02F00550D9260650DA22DF50086E34
:101170001FC06FFF1FA003D0050E176E1200030ED5
:10118000176E12006BAC07D00001932B6B9C050E01
:1011900057EC0CF0120008060828D8A40ED0060E52
:1011A0000526000E0622182E04D0000E57EC0CF077
:1011B00012006B82020E176E12009AC0D9FF9BC0FC
:1011C000DAFFDF506F6E00019A4B9B2B12006BAC65
:1011D00007D00001932B040E57EC0CF06B9C12000F
:1011E0006B86080E176E1200080E176E6B861200C3
:1011F0009AC0D9FF9BC0DAFF6FCFDFFF00019A4B87
:101200009B2B010E085ED8B404D06B9A060E176EA5
:1012100003D06B8A8AEC0EF06B881200000E57EC3C
:101220000CF012000001932B060E57EC0CF012008C
:101230001750000AD8B406D7010AD8B442D7030A17
:10124000D8B479D7010AD8B49DD7070AD8B4E6D75D
:10125000010AD8B4BCD7030AD8B4C6D7010AD8B497
:10126000DDD70F0AD8B4C4D7020AD8B42ED7010AE2
:10127000D8B442D7D7D7EDEC0CF0480EAD6E0D0EBA
:10128000E82EFED700F0490EAD6E0D0EE82EFED70B
:1012900000F00A0EAD6E3C0E0101596F010E010106
:1012A0005A6F000E01015B6F000E01015C6F000EB2
:1012B00001015D6F540EAD6E0D0EE82EFED700F0ED
:1012C000520EAD6E0D0EE82EFED700F00A0EAD6E7A
:1012D00021EE59F000EE39F0050EDBCFEBFFE8060A
:1012E000FCE218EC0EF01250D8B4FDD7000E01014C
:1012F000586F0E0E0101586501D01CD059EC0DF04D
:101300000101576F01015851010D480EF324D96EA8
:10131000010EF420DA6E57C1DFFF0A0E01015719E2
:10132000D8B408D0010157510101D8B403D001014C
:10133000582BDFD7410EAD6E0D0EE82EFED700F014
:10134000540EAD6E0D0EE82EFED700F00A0EAD6EF7
:10135000480E396E010E3A6E000E3B6E000E3C6E6A
:10136000000E3D6E000E3F6E0F0E3E6E2CEC0CF02C
:10137000BAD7000E236E000E226E23BE06D0235075
:1013800009E10C0E225CD8B005D038EC0BF0224AF3
:10139000232AF3D7000E236E000E226E23BE06D042
:1013A000235009E10C0E225CD8B005D069EC0BF09B
:1013B000224A232AF3D7820E216EDE0EE82EFED7B4
:1013C000212EFCD7820E216EDE0EE82EFED7212EB6
:1013D000FCD7820E216EDE0EE82EFED7212EFCD722
:1013E000820E216EDE0EE82EFED7212EFCD7820E55
:1013F000216EDE0EE82EFED7212EFCD7820E216E46
:10140000DE0EE82EFED7212EFCD7820E216EDE0ED8
:10141000E82EFED7212EFCD7820E216EDE0EE82E9E
:10142000FED7212EFCD7820E216EDE0EE82EFED7CF
:10143000212EFCD7820E216EDE0EE82EFED7212E45
:10144000FCD7820E216EDE0EE82EFED7212EFCD7B1
:101450001200000E236E000E226E23BE06D0235013
:1014600009E1180E225CD8B005D069EC0BF0224AD5
:10147000232AF3D7820E216EDE0EE82EFED7212E10
:10148000FCD7820E216EDE0EE82EFED7212EFCD771
:10149000820E216EDE0EE82EFED7212EFCD7820EA4
:1014A000216EDE0EE82EFED7212EFCD7820E216E95
:1014B000DE0EE82EFED7212EFCD7820E216EDE0E28
:1014C000E82EFED7212EFCD7820E216EDE0EE82EEE
:1014D000FED7212EFCD7820E216EDE0EE82EFED71F
:1014E000212EFCD7820E216EDE0EE82EFED7212E95
:1014F000FCD7820E216EDE0EE82EFED7212EFCD701
:10150000820E216EDE0EE82EFED7212EFCD71200B1
:10151000000E256E3F0E256401D01200000E246ED1
:10152000170E246401D042D02550D8A41FD02550D6
:10153000010D180EF324D96E010EF420DA6E000EA0
:10154000DF6E2550010D300EF324D96E010EF4200C
:10155000DA6E000EDF6E2550010D000EF324D96EF9
:10156000010EF420DA6E000EDF6E1ED02550010D44
:10157000180EF324D96E010EF420DA6E040EDF2665
:101580002550010D300EF324D96E010EF420DA6ED1
:10159000040EDF262550010D000EF324D96E010E36
:1015A000F420DA6E040EDF26242ABAD7D1EC0CF030
:1015B000000E226E030E216EA5EC0DF0252AAAD78F
:1015C000000E236E000E226E23BE06D0235009E1CA
:1015D000180E225CD8B005D09AEC0BF0224A232AD0
:1015E000F3D7820E216EDE0EE82EFED7212EFCD719
:1015F000820E216EDE0EE82EFED7212EFCD7820E43
:10160000216EDE0EE82EFED7212EFCD7820E216E33
:10161000DE0EE82EFED7212EFCD7820E216EDE0EC6
:10162000E82EFED7212EFCD7820E216EDE0EE82E8C
:10163000FED7212EFCD7820E216EDE0EE82EFED7BD
:10164000212EFCD7820E216EDE0EE82EFED7212E33
:10165000FCD7820E216EDE0EE82EFED7212EFCD79F
:10166000820E216EDE0EE82EFED7212EFCD7120050
:10167000CDEC0EF0CDEC0EF0CDEC0EF0CDEC0EF08E
:10168000CDEC0EF0CDEC0EF0CDEC0EF0CDEC0EF07E
:10169000CDEC0EF0CDEC0EF0CDEC0EF0CDEC0EF06E
:1016A000CDEC0EF0CDEC0EF0CDEC0EF0CDEC0EF05E
:1016B000D8EC0EF0D8EC0EF0D8EC0EF0D8EC0EF022
:1016C000D8EC0EF0D8EC0EF0D8EC0EF0D8EC0EF012
:1016D0001200CDEC0EF0CDEC0EF0CDEC0EF0CDEC1A
:1016E0000EF0CDEC0EF0CDEC0EF0CDEC0EF0CDEC1E
:1016F0000EF0D8EC0EF0D8EC0EF0D8EC0EF0D8ECE2
:101700000EF0D8EC0EF0D8EC0EF0D8EC0EF0D8ECD1
:101710000EF0D8EC0EF0D8EC0EF0D8EC0EF0D8ECC1
:101720000EF0D8EC0EF0D8EC0EF0D8EC0EF0D8ECB1
:101730000EF01200D8EC0EF0D8EC0EF0D8EC0EF053
:10174000D8EC0EF0D8EC0EF0D8EC0EF0D8EC0EF091
:10175000D8EC0EF0CDEC0EF0CDEC0EF0CDEC0EF0A2
:10176000CDEC0EF0CDEC0EF0CDEC0EF0CDEC0EF09D
:10177000CDEC0EF0D8EC0EF0D8EC0EF0D8EC0EF06C
:10178000D8EC0EF0D8EC0EF0D8EC0EF0D8EC0EF051
:10179000D8EC0EF01200D8EC0EF0D8EC0EF0D8EC2D
:1017A0000EF0D8EC0EF0D8EC0EF0D8EC0EF0D8EC31
:1017B0000EF0D8EC0EF0D8EC0EF0D8EC0EF0D8EC21
:1017C0000EF0D8EC0EF0D8EC0EF0D8EC0EF0D8EC11
:1017D0000EF0D8EC0EF0D8EC0EF0D8EC0EF0D8EC01
:1017E0000EF0D8EC0EF0D8EC0EF0D8EC0EF0D8ECF1
:1017F0000EF0D8EC0EF0120001EE00F0480EEE6A8A
:10180000E806FDE100EE60F0710EEE6AE806FDE12B
:1018100000EE01F0200EEE6AE806FDE1420EF66EE3
:101820001D0EF76E000EF86E00EED1F010EE14F003
:101830000900F5CFEEFFE550E150FAE1D00EF66E6B
:101840001D0EF76E000EF86E0900F5CF42F04390C2
:10185000439200013BEF09F03BC0EBF03CC0ECF0E1
:101860003DC0EDF039C0EEF03AC0EFF017D0EBC05C
:10187000F6FFECC0F7FFEDC0F8FFEEC0D9FFEFC0F8
:10188000DAFF0800F5CFDFFF0001010EEB27000EA5
:10189000EC23000EED230001EE4BEF2B3E06D8A00B
:1018A0003F063E28E4E13F28D8B41200E0D7236E7B
:1018B0006B84000120EE03F0A851D926A951DA2249
:1018C000DE50DE10D8B411D0000120EE03F0A85194
:1018D000D926A951DA22DECF21F0DDCF22F021C0B6
:1018E000D9FF22C0DAFF23C0DFFF000E176E1200FF
:1018F000CB0E00018F6F000E0001906FCB0E000128
:101900008D6F000E00018E6F000191830001919197
:10191000000E0001936F400E6D6E280E6C6E000E6F
:10192000696E090E6E6EA49EA38E1200266E0CD0F8
:10193000E0EC0AF016D029EC0AF013D0B9EC09F06B
:1019400010D088EC0AF00DD02650010AD8B4F0D798
:10195000030AD8B4F0D7010AD8B4F0D7060AD8B42D
:10196000F0D73FEC0EF0120027049D0E2858D8A0A7
:1019700002D07B9212001950D8B406D0000E196E16
:10198000010E96EC0CF005D0010E196E020E96ECCD
:101990000CF0000E226E500E216EA5EC0DF07B9225
:1019A0001200000E216E170E216401D014D0070E14
:1019B000226E22BE02D02206FCD7070E226E22BE65
:1019C00002D02206FCD7070E226E22BE02D02206CB
:1019D000FCD7212AE8D78A9A1200B5EC0EF008EC61
:1019E0000DF0C6EC0EF0BFEC0EF078EC0CF060ECF5
:1019F0000EF0D6EC0DF07DEC0EF051EC0EF0ABECF1
:101A00000EF06FEC0EF03EEC0DF023EC0DF012003A
:101A1000010E8A6E000E896E000E8B6E0E0E0F0187
:101A2000386F000E0F01396F000E0F013A6F9F0ED5
:101A3000936E910E946E060E616EEF0E926EF18EA5
:101A40006288F2961200A39AA398080E706E900E08
:101A5000716E240E726E220E756E000E766E000E82
:101A6000156E000E166E080E0001EA6F000E136E62
:101A7000000E146E000E126EA38A12009D9A9D989D
:101A8000080EB86E900EAB6E240EAC6EA00EAF6E4C
:101A9000010EB06E000E106E000E116E080E0001E9
:101AA000E96F000E0E6E000E0F6E000E0D6E9D8A19
:101AB0001200000E396E0D50D8B4FDD79D9A0F500C
:101AC000010D6D0EF324D96E000EF420DA6EDF5096
:101AD000396E0F2A070E0F6402D0000E0F6E0D062E
:101AE0009D8A39501200080E0001EA6113D0165089
:101AF000010D850EF324D96E000EF420DA6EDF504E
:101B0000736E162A070E166402D0000E166E0001C0
:101B1000EA2B1200A3981200080E0001E96113D00D
:101B20001150010D750EF324D96E000EF420DA6EFB
:101B3000DF50AD6E112A070E116402D0000E116E37
:101B40000001E92B12009D981200225004E1020EC0
:101B5000215CD8A00BD0820E236EDE0EE82EFED7BD
:101B6000232EFCD72106D8A02206EFD7820E236EA3
:101B7000DE0EE82EFED7232EFCD71200A192415094
:101B8000B36E40C0B2FF00019C4B9D2B00019D51E4
:101B900005E11E0E00019C5DD8A012002DEC0EF098
:101BA000000E00019D6F000E9C6F1200000EB16EC2
:101BB000000EB46EB368980EB26EB2CF40F0B3CFE1
:101BC00041F0A192A082CC0E396E1D0E3A6ED3EC7C
:101BD0000EF0E0EC0EF0120071A202D07198718844
:101BE0001350010D7D0EF324D96E000EF420DA6E31
:101BF00074CFDFFF132A070E136402D0000E136E9A
:101C0000122A1200ABA202D0AB98AB880E50010D85
:101C10006D0EF324D96E000EF420DA6EAECFDFFF26
:101C20000E2A070E0E6402D0000E0E6E0D2A120050
:101C30003A503B243C243D2400083F6E3F043E6E56
:101C400039C073FF3AC073FF3BC073FF3CC073FFE2
:101C50003DC073FF3EC073FF12000001E55100015B
:101C6000E611D8B4120001D812000500FA6E000186
:101C7000E551FD6EE651FE6EFF6AFA501200000E4D
:101C8000226E000E216E22BE06D0225009E1180EEF
:101C9000215CD8B01200CBEC0BF0214A222AF3D7FA
:101CA00012003C0E0F01546F1E0E0F01556F000EF7
:101CB0000F01566F0F014851F30B0409486F1200D2
:101CC000040E0F01576F000E0F01586F000E0F0129
:101CD000596FFC0E0F0148177B927A821200000E9A
:101CE000CD6E000ECC6ECF68CE68CECFE7F0CFCFF2
:101CF000E8F09E90E4EC0EF01200000E0F01516F20
:101D0000670E0F01526F000E0F01536F7E90DDECD6
:101D10000EF01200060E0526000E0622182E03D025
:101D2000040E176E1200010E176E120058CF29F024
:101D300059CF2AF029C027F02AC028F0B4EC0CF0C3
:101D400012008040201008040201FFFFFEFFF7FF91
:101D5000F0FF01002F00020EBA6E630EBB6E000E84
:101D6000BC6E9E92E2EC0EF01200D09EA59CA59E49
:101D7000A598A59A7C929F989F9AA2921200000E15
:101D8000C76E330EC66E000EC86E1200720ED36E92
:101D9000040ED26E000E9B6E12008A8A00F000F0D4
:101DA0008A9A00F0120039C0E5F03AC0E6F012005D
:101DB0008A8A00F08A9A00F012000F015185120001
:101DC000B1801200BA841200CD80120012001200FD
:011DD0008092
:020000040020DA
:08000000FFFFFFFFFFFFFFFF00
:020000040030CA
:0E000000FF281F3CFFBF81FF0FC00FE00F4025
:00000001FF
